{
  "contractName": "MuzeCustody",
  "abi": [
    {
      "inputs": [],
      "stateMutability": "nonpayable",
      "type": "constructor"
    },
    {
      "anonymous": false,
      "inputs": [
        {
          "indexed": true,
          "internalType": "address",
          "name": "person",
          "type": "address"
        },
        {
          "indexed": true,
          "internalType": "address",
          "name": "tour",
          "type": "address"
        }
      ],
      "name": "EnteredTour",
      "type": "event"
    },
    {
      "anonymous": false,
      "inputs": [
        {
          "indexed": true,
          "internalType": "address",
          "name": "previousOwner",
          "type": "address"
        },
        {
          "indexed": true,
          "internalType": "address",
          "name": "newOwner",
          "type": "address"
        }
      ],
      "name": "OwnershipTransferred",
      "type": "event"
    },
    {
      "inputs": [],
      "name": "TOUR_ENTRY_FEE",
      "outputs": [
        {
          "internalType": "uint256",
          "name": "",
          "type": "uint256"
        }
      ],
      "stateMutability": "view",
      "type": "function",
      "constant": true
    },
    {
      "inputs": [],
      "name": "nft",
      "outputs": [
        {
          "internalType": "contract IERC721",
          "name": "",
          "type": "address"
        }
      ],
      "stateMutability": "view",
      "type": "function",
      "constant": true
    },
    {
      "inputs": [],
      "name": "owner",
      "outputs": [
        {
          "internalType": "address",
          "name": "",
          "type": "address"
        }
      ],
      "stateMutability": "view",
      "type": "function",
      "constant": true
    },
    {
      "inputs": [],
      "name": "renounceOwnership",
      "outputs": [],
      "stateMutability": "nonpayable",
      "type": "function"
    },
    {
      "inputs": [
        {
          "internalType": "uint256",
          "name": "",
          "type": "uint256"
        }
      ],
      "name": "rents",
      "outputs": [
        {
          "internalType": "address",
          "name": "previousOwner",
          "type": "address"
        },
        {
          "internalType": "uint256",
          "name": "tokenId",
          "type": "uint256"
        },
        {
          "internalType": "uint256",
          "name": "timeLockExpiry",
          "type": "uint256"
        }
      ],
      "stateMutability": "view",
      "type": "function",
      "constant": true
    },
    {
      "inputs": [],
      "name": "token",
      "outputs": [
        {
          "internalType": "contract IERC777",
          "name": "",
          "type": "address"
        }
      ],
      "stateMutability": "view",
      "type": "function",
      "constant": true
    },
    {
      "inputs": [],
      "name": "totalStaked",
      "outputs": [
        {
          "internalType": "uint256",
          "name": "",
          "type": "uint256"
        }
      ],
      "stateMutability": "view",
      "type": "function",
      "constant": true
    },
    {
      "inputs": [
        {
          "internalType": "address",
          "name": "newOwner",
          "type": "address"
        }
      ],
      "name": "transferOwnership",
      "outputs": [],
      "stateMutability": "nonpayable",
      "type": "function"
    },
    {
      "inputs": [
        {
          "internalType": "address",
          "name": "_tour",
          "type": "address"
        }
      ],
      "name": "hasEnteredTour",
      "outputs": [
        {
          "internalType": "bool",
          "name": "",
          "type": "bool"
        }
      ],
      "stateMutability": "view",
      "type": "function",
      "constant": true
    },
    {
      "inputs": [],
      "name": "getRents",
      "outputs": [
        {
          "components": [
            {
              "internalType": "address",
              "name": "previousOwner",
              "type": "address"
            },
            {
              "internalType": "uint256",
              "name": "tokenId",
              "type": "uint256"
            },
            {
              "internalType": "uint256",
              "name": "timeLockExpiry",
              "type": "uint256"
            }
          ],
          "internalType": "struct MuzeCustody.RentedNFT[]",
          "name": "",
          "type": "tuple[]"
        }
      ],
      "stateMutability": "view",
      "type": "function",
      "constant": true
    },
    {
      "inputs": [],
      "name": "getEstimatedRewards",
      "outputs": [
        {
          "internalType": "uint256",
          "name": "",
          "type": "uint256"
        }
      ],
      "stateMutability": "view",
      "type": "function",
      "constant": true
    },
    {
      "inputs": [
        {
          "internalType": "address",
          "name": "_token",
          "type": "address"
        }
      ],
      "name": "setTokenAddress",
      "outputs": [],
      "stateMutability": "nonpayable",
      "type": "function"
    },
    {
      "inputs": [
        {
          "internalType": "address",
          "name": "_token",
          "type": "address"
        }
      ],
      "name": "setNFTAddress",
      "outputs": [],
      "stateMutability": "nonpayable",
      "type": "function"
    },
    {
      "inputs": [
        {
          "internalType": "address",
          "name": "_tour",
          "type": "address"
        }
      ],
      "name": "enterTour",
      "outputs": [],
      "stateMutability": "nonpayable",
      "type": "function"
    },
    {
      "inputs": [
        {
          "internalType": "address",
          "name": "",
          "type": "address"
        },
        {
          "internalType": "address",
          "name": "_from",
          "type": "address"
        },
        {
          "internalType": "uint256",
          "name": "_tokenId",
          "type": "uint256"
        },
        {
          "internalType": "bytes",
          "name": "",
          "type": "bytes"
        }
      ],
      "name": "onERC721Received",
      "outputs": [
        {
          "internalType": "bytes4",
          "name": "",
          "type": "bytes4"
        }
      ],
      "stateMutability": "nonpayable",
      "type": "function"
    },
    {
      "inputs": [
        {
          "internalType": "address",
          "name": "_tour",
          "type": "address"
        }
      ],
      "name": "redeemRewards",
      "outputs": [],
      "stateMutability": "nonpayable",
      "type": "function"
    },
    {
      "inputs": [],
      "name": "redeemNFT",
      "outputs": [],
      "stateMutability": "nonpayable",
      "type": "function"
    },
    {
      "inputs": [
        {
          "internalType": "address",
          "name": "operator",
          "type": "address"
        },
        {
          "internalType": "address",
          "name": "from",
          "type": "address"
        },
        {
          "internalType": "address",
          "name": "to",
          "type": "address"
        },
        {
          "internalType": "uint256",
          "name": "amount",
          "type": "uint256"
        },
        {
          "internalType": "bytes",
          "name": "userData",
          "type": "bytes"
        },
        {
          "internalType": "bytes",
          "name": "operatorData",
          "type": "bytes"
        }
      ],
      "name": "tokensReceived",
      "outputs": [],
      "stateMutability": "nonpayable",
      "type": "function"
    },
    {
      "inputs": [
        {
          "internalType": "address",
          "name": "operator",
          "type": "address"
        },
        {
          "internalType": "address",
          "name": "from",
          "type": "address"
        },
        {
          "internalType": "address",
          "name": "to",
          "type": "address"
        },
        {
          "internalType": "uint256",
          "name": "amount",
          "type": "uint256"
        },
        {
          "internalType": "bytes",
          "name": "userData",
          "type": "bytes"
        },
        {
          "internalType": "bytes",
          "name": "operatorData",
          "type": "bytes"
        }
      ],
      "name": "tokensToSend",
      "outputs": [],
      "stateMutability": "nonpayable",
      "type": "function"
    }
  ],
  "bytecode": "0x6080604052731820a4b7618bde71dce8cdc73aab6c95905fad24600160006101000a81548173ffffffffffffffffffffffffffffffffffffffff021916908373ffffffffffffffffffffffffffffffffffffffff1602179055507f150b7a023d4804d13e8c85fb27262cb750cf6ba9f9dd3bb30d90f482ceeb4b1f600160146101000a81548163ffffffff021916908360e01c02179055506801a055690d9db80000600255348015620000b157600080fd5b50620000d2620000c66200018d60201b60201c565b6200019560201b60201c565b600160009054906101000a900473ffffffffffffffffffffffffffffffffffffffff1673ffffffffffffffffffffffffffffffffffffffff166329965a1d307fb281fc8c12954d22544db45de3159a39272895b169a852b314f9cc762e44c53b306040518463ffffffff1660e01b815260040162000153939291906200027b565b600060405180830381600087803b1580156200016e57600080fd5b505af115801562000183573d6000803e3d6000fd5b50505050620002f6565b600033905090565b60008060009054906101000a900473ffffffffffffffffffffffffffffffffffffffff169050816000806101000a81548173ffffffffffffffffffffffffffffffffffffffff021916908373ffffffffffffffffffffffffffffffffffffffff1602179055508173ffffffffffffffffffffffffffffffffffffffff168173ffffffffffffffffffffffffffffffffffffffff167f8be0079c531659141344cd1fd0a4f28419497f9722a3daafe3b4186f6b6457e060405160405180910390a35050565b6200026481620002b8565b82525050565b6200027581620002cc565b82525050565b600060608201905062000292600083018662000259565b620002a160208301856200026a565b620002b0604083018462000259565b949350505050565b6000620002c582620002d6565b9050919050565b6000819050919050565b600073ffffffffffffffffffffffffffffffffffffffff82169050919050565b611e5080620003066000396000f3fe608060405234801561001057600080fd5b50600436106101205760003560e01c806377262d38116100ad578063a05d098c11610071578063a05d098c146102b9578063a33a32d5146102eb578063cdfa86b214610309578063f2fde38b14610327578063fc0c546a1461034357610120565b806377262d381461023b578063817b1cd2146102455780638da5cb5b146102635780639262187b1461028157806394fd40aa1461029d57610120565b806347ccca02116100f457806347ccca02146101ab57806369d03738146101c9578063715018a6146101e5578063745b61c1146101ef57806375ab97821461021f57610120565b806223de2914610125578063150b7a021461014157806326a4e8d2146101715780633c5ea0f31461018d575b600080fd5b61013f600480360381019061013a91906114f6565b610361565b005b61015b600480360381019061015691906115c5565b61036b565b6040516101689190611995565b60405180910390f35b61018b600480360381019061018691906114c9565b610682565b005b610195610742565b6040516101a29190611958565b60405180910390f35b6101b361080b565b6040516101c091906119b0565b60405180910390f35b6101e360048036038101906101de91906114c9565b610831565b005b6101ed6108f1565b005b610209600480360381019061020491906114c9565b610979565b604051610216919061197a565b60405180910390f35b610239600480360381019061023491906114f6565b610a0c565b005b610243610a16565b005b61024d610b9d565b60405161025a9190611a46565b60405180910390f35b61026b610ba3565b6040516102789190611836565b60405180910390f35b61029b600480360381019061029691906114c9565b610bcc565b005b6102b760048036038101906102b291906114c9565b610e52565b005b6102d360048036038101906102ce919061164d565b611131565b6040516102e293929190611921565b60405180910390f35b6102f361118b565b6040516103009190611a46565b60405180910390f35b610311611191565b60405161031e9190611a46565b60405180910390f35b610341600480360381019061033c91906114c9565b61125f565b005b61034b611357565b60405161035891906119cb565b60405180910390f35b5050505050505050565b60008060405180606001604052808773ffffffffffffffffffffffffffffffffffffffff16815260200186815260200162127500426103aa9190611abc565b8152509050600781908060018154018082558091505060019003906000526020600020906003020160009091909190915060008201518160000160006101000a81548173ffffffffffffffffffffffffffffffffffffffff021916908373ffffffffffffffffffffffffffffffffffffffff160217905550602082015181600101556040820151816002015550508573ffffffffffffffffffffffffffffffffffffffff16600a60008873ffffffffffffffffffffffffffffffffffffffff1673ffffffffffffffffffffffffffffffffffffffff16815260200190815260200160002060000160009054906101000a900473ffffffffffffffffffffffffffffffffffffffff1673ffffffffffffffffffffffffffffffffffffffff16141561052b57600a60008773ffffffffffffffffffffffffffffffffffffffff1673ffffffffffffffffffffffffffffffffffffffff168152602001908152602001600020600101600081548092919061052190611c59565b919050555061064e565b6008869080600181540180825580915050600190039060005260206000200160009091909190916101000a81548173ffffffffffffffffffffffffffffffffffffffff021916908373ffffffffffffffffffffffffffffffffffffffff16021790555060405180604001604052808773ffffffffffffffffffffffffffffffffffffffff1681526020016001815250600a60008873ffffffffffffffffffffffffffffffffffffffff1673ffffffffffffffffffffffffffffffffffffffff16815260200190815260200160002060008201518160000160006101000a81548173ffffffffffffffffffffffffffffffffffffffff021916908373ffffffffffffffffffffffffffffffffffffffff160217905550602082015181600101559050505b6009600081548092919061066190611c59565b9190505550600160149054906101000a900460e01b91505095945050505050565b61068a61137d565b73ffffffffffffffffffffffffffffffffffffffff166106a8610ba3565b73ffffffffffffffffffffffffffffffffffffffff16146106fe576040517f08c379a00000000000000000000000000000000000000000000000000000000081526004016106f590611a06565b60405180910390fd5b80600360006101000a81548173ffffffffffffffffffffffffffffffffffffffff021916908373ffffffffffffffffffffffffffffffffffffffff16021790555050565b60606007805480602002602001604051908101604052809291908181526020016000905b8282101561080257838290600052602060002090600302016040518060600160405290816000820160009054906101000a900473ffffffffffffffffffffffffffffffffffffffff1673ffffffffffffffffffffffffffffffffffffffff1673ffffffffffffffffffffffffffffffffffffffff1681526020016001820154815260200160028201548152505081526020019060010190610766565b50505050905090565b600460009054906101000a900473ffffffffffffffffffffffffffffffffffffffff1681565b61083961137d565b73ffffffffffffffffffffffffffffffffffffffff16610857610ba3565b73ffffffffffffffffffffffffffffffffffffffff16146108ad576040517f08c379a00000000000000000000000000000000000000000000000000000000081526004016108a490611a06565b60405180910390fd5b80600460006101000a81548173ffffffffffffffffffffffffffffffffffffffff021916908373ffffffffffffffffffffffffffffffffffffffff16021790555050565b6108f961137d565b73ffffffffffffffffffffffffffffffffffffffff16610917610ba3565b73ffffffffffffffffffffffffffffffffffffffff161461096d576040517f08c379a000000000000000000000000000000000000000000000000000000000815260040161096490611a06565b60405180910390fd5b6109776000611385565b565b6000600560008373ffffffffffffffffffffffffffffffffffffffff1673ffffffffffffffffffffffffffffffffffffffff16815260200190815260200160002060003373ffffffffffffffffffffffffffffffffffffffff1673ffffffffffffffffffffffffffffffffffffffff16815260200190815260200160002060009054906101000a900460ff169050919050565b5050505050505050565b60005b600780549050811015610b9a573373ffffffffffffffffffffffffffffffffffffffff1660078281548110610a5157610a50611d00565b5b906000526020600020906003020160000160009054906101000a900473ffffffffffffffffffffffffffffffffffffffff1673ffffffffffffffffffffffffffffffffffffffff161415610b87574260078281548110610ab457610ab3611d00565b5b90600052602060002090600302016002015410610ad057600080fd5b600460009054906101000a900473ffffffffffffffffffffffffffffffffffffffff1673ffffffffffffffffffffffffffffffffffffffff166342842e0e303360078581548110610b2457610b23611d00565b5b9060005260206000209060030201600101546040518463ffffffff1660e01b8152600401610b5493929190611851565b600060405180830381600087803b158015610b6e57600080fd5b505af1158015610b82573d6000803e3d6000fd5b505050505b8080610b9290611c59565b915050610a19565b50565b60095481565b60008060009054906101000a900473ffffffffffffffffffffffffffffffffffffffff16905090565b6000600660008373ffffffffffffffffffffffffffffffffffffffff1673ffffffffffffffffffffffffffffffffffffffff16815260200190815260200160002054905060005b600880549050811015610e4d576000600a600060088481548110610c3a57610c39611d00565b5b9060005260206000200160009054906101000a900473ffffffffffffffffffffffffffffffffffffffff1673ffffffffffffffffffffffffffffffffffffffff1673ffffffffffffffffffffffffffffffffffffffff168152602001908152602001600020600101549050600360009054906101000a900473ffffffffffffffffffffffffffffffffffffffff1673ffffffffffffffffffffffffffffffffffffffff16639bd9bbc660088481548110610cf757610cf6611d00565b5b9060005260206000200160009054906101000a900473ffffffffffffffffffffffffffffffffffffffff1660095484610d309190611b12565b86610d3b9190611b43565b6040518363ffffffff1660e01b8152600401610d589291906118e5565b600060405180830381600087803b158015610d7257600080fd5b505af1158015610d86573d6000803e3d6000fd5b50505050600a600060088481548110610da257610da1611d00565b5b9060005260206000200160009054906101000a900473ffffffffffffffffffffffffffffffffffffffff1673ffffffffffffffffffffffffffffffffffffffff1673ffffffffffffffffffffffffffffffffffffffff168152602001908152602001600020600080820160006101000a81549073ffffffffffffffffffffffffffffffffffffffff021916905560018201600090555050508080610e4590611c59565b915050610c13565b505050565b600560008273ffffffffffffffffffffffffffffffffffffffff1673ffffffffffffffffffffffffffffffffffffffff16815260200190815260200160002060003373ffffffffffffffffffffffffffffffffffffffff1673ffffffffffffffffffffffffffffffffffffffff16815260200190815260200160002060009054906101000a900460ff1615610f1c576040517f08c379a0000000000000000000000000000000000000000000000000000000008152600401610f1390611a26565b60405180910390fd5b6001600560008373ffffffffffffffffffffffffffffffffffffffff1673ffffffffffffffffffffffffffffffffffffffff16815260200190815260200160002060003373ffffffffffffffffffffffffffffffffffffffff1673ffffffffffffffffffffffffffffffffffffffff16815260200190815260200160002060006101000a81548160ff021916908315150217905550600254600660008373ffffffffffffffffffffffffffffffffffffffff1673ffffffffffffffffffffffffffffffffffffffff16815260200190815260200160002054610ffe9190611abc565b600660008373ffffffffffffffffffffffffffffffffffffffff1673ffffffffffffffffffffffffffffffffffffffff16815260200190815260200160002081905550600360009054906101000a900473ffffffffffffffffffffffffffffffffffffffff1673ffffffffffffffffffffffffffffffffffffffff166362ad1b8333306002546040518463ffffffff1660e01b81526004016110a293929190611888565b600060405180830381600087803b1580156110bc57600080fd5b505af11580156110d0573d6000803e3d6000fd5b505050508073ffffffffffffffffffffffffffffffffffffffff163373ffffffffffffffffffffffffffffffffffffffff167f67c137936f29dc501af7a4dbf34b0c986720b1ddbe3bcb618e19d9cf0399435d60405160405180910390a350565b6007818154811061114157600080fd5b90600052602060002090600302016000915090508060000160009054906101000a900473ffffffffffffffffffffffffffffffffffffffff16908060010154908060020154905083565b60025481565b60008060066000600460009054906101000a900473ffffffffffffffffffffffffffffffffffffffff1673ffffffffffffffffffffffffffffffffffffffff1673ffffffffffffffffffffffffffffffffffffffff1681526020019081526020016000205490506000600a60003373ffffffffffffffffffffffffffffffffffffffff1673ffffffffffffffffffffffffffffffffffffffff1681526020019081526020016000206001015490506009548161124d9190611b12565b826112589190611b43565b9250505090565b61126761137d565b73ffffffffffffffffffffffffffffffffffffffff16611285610ba3565b73ffffffffffffffffffffffffffffffffffffffff16146112db576040517f08c379a00000000000000000000000000000000000000000000000000000000081526004016112d290611a06565b60405180910390fd5b600073ffffffffffffffffffffffffffffffffffffffff168173ffffffffffffffffffffffffffffffffffffffff16141561134b576040517f08c379a0000000000000000000000000000000000000000000000000000000008152600401611342906119e6565b60405180910390fd5b61135481611385565b50565b600360009054906101000a900473ffffffffffffffffffffffffffffffffffffffff1681565b600033905090565b60008060009054906101000a900473ffffffffffffffffffffffffffffffffffffffff169050816000806101000a81548173ffffffffffffffffffffffffffffffffffffffff021916908373ffffffffffffffffffffffffffffffffffffffff1602179055508173ffffffffffffffffffffffffffffffffffffffff168173ffffffffffffffffffffffffffffffffffffffff167f8be0079c531659141344cd1fd0a4f28419497f9722a3daafe3b4186f6b6457e060405160405180910390a35050565b60008135905061145881611dec565b92915050565b60008083601f84011261147457611473611d34565b5b8235905067ffffffffffffffff81111561149157611490611d2f565b5b6020830191508360018202830111156114ad576114ac611d39565b5b9250929050565b6000813590506114c381611e03565b92915050565b6000602082840312156114df576114de611d43565b5b60006114ed84828501611449565b91505092915050565b60008060008060008060008060c0898b03121561151657611515611d43565b5b60006115248b828c01611449565b98505060206115358b828c01611449565b97505060406115468b828c01611449565b96505060606115578b828c016114b4565b955050608089013567ffffffffffffffff81111561157857611577611d3e565b5b6115848b828c0161145e565b945094505060a089013567ffffffffffffffff8111156115a7576115a6611d3e565b5b6115b38b828c0161145e565b92509250509295985092959890939650565b6000806000806000608086880312156115e1576115e0611d43565b5b60006115ef88828901611449565b955050602061160088828901611449565b9450506040611611888289016114b4565b935050606086013567ffffffffffffffff81111561163257611631611d3e565b5b61163e8882890161145e565b92509250509295509295909350565b60006020828403121561166357611662611d43565b5b6000611671848285016114b4565b91505092915050565b600061168683836117d6565b60608301905092915050565b61169b81611b9d565b82525050565b6116aa81611b9d565b82525050565b60006116bb82611a71565b6116c58185611a89565b93506116d083611a61565b8060005b838110156117015781516116e8888261167a565b97506116f383611a7c565b9250506001810190506116d4565b5085935050505092915050565b61171781611baf565b82525050565b61172681611bbb565b82525050565b61173581611c11565b82525050565b61174481611c35565b82525050565b6000611757602683611aab565b915061176282611d48565b604082019050919050565b600061177a602083611aab565b915061178582611d97565b602082019050919050565b600061179d600083611a9a565b91506117a882611dc0565b600082019050919050565b60006117c0601483611aab565b91506117cb82611dc3565b602082019050919050565b6060820160008201516117ec6000850182611692565b5060208201516117ff6020850182611818565b5060408201516118126040850182611818565b50505050565b61182181611c07565b82525050565b61183081611c07565b82525050565b600060208201905061184b60008301846116a1565b92915050565b600060608201905061186660008301866116a1565b61187360208301856116a1565b6118806040830184611827565b949350505050565b600060a08201905061189d60008301866116a1565b6118aa60208301856116a1565b6118b76040830184611827565b81810360608301526118c881611790565b905081810360808301526118db81611790565b9050949350505050565b60006060820190506118fa60008301856116a1565b6119076020830184611827565b818103604083015261191881611790565b90509392505050565b600060608201905061193660008301866116a1565b6119436020830185611827565b6119506040830184611827565b949350505050565b6000602082019050818103600083015261197281846116b0565b905092915050565b600060208201905061198f600083018461170e565b92915050565b60006020820190506119aa600083018461171d565b92915050565b60006020820190506119c5600083018461172c565b92915050565b60006020820190506119e0600083018461173b565b92915050565b600060208201905081810360008301526119ff8161174a565b9050919050565b60006020820190508181036000830152611a1f8161176d565b9050919050565b60006020820190508181036000830152611a3f816117b3565b9050919050565b6000602082019050611a5b6000830184611827565b92915050565b6000819050602082019050919050565b600081519050919050565b6000602082019050919050565b600082825260208201905092915050565b600082825260208201905092915050565b600082825260208201905092915050565b6000611ac782611c07565b9150611ad283611c07565b9250827fffffffffffffffffffffffffffffffffffffffffffffffffffffffffffffffff03821115611b0757611b06611ca2565b5b828201905092915050565b6000611b1d82611c07565b9150611b2883611c07565b925082611b3857611b37611cd1565b5b828204905092915050565b6000611b4e82611c07565b9150611b5983611c07565b9250817fffffffffffffffffffffffffffffffffffffffffffffffffffffffffffffffff0483118215151615611b9257611b91611ca2565b5b828202905092915050565b6000611ba882611be7565b9050919050565b60008115159050919050565b60007fffffffff0000000000000000000000000000000000000000000000000000000082169050919050565b600073ffffffffffffffffffffffffffffffffffffffff82169050919050565b6000819050919050565b6000611c1c82611c23565b9050919050565b6000611c2e82611be7565b9050919050565b6000611c4082611c47565b9050919050565b6000611c5282611be7565b9050919050565b6000611c6482611c07565b91507fffffffffffffffffffffffffffffffffffffffffffffffffffffffffffffffff821415611c9757611c96611ca2565b5b600182019050919050565b7f4e487b7100000000000000000000000000000000000000000000000000000000600052601160045260246000fd5b7f4e487b7100000000000000000000000000000000000000000000000000000000600052601260045260246000fd5b7f4e487b7100000000000000000000000000000000000000000000000000000000600052603260045260246000fd5b600080fd5b600080fd5b600080fd5b600080fd5b600080fd5b7f4f776e61626c653a206e6577206f776e657220697320746865207a65726f206160008201527f6464726573730000000000000000000000000000000000000000000000000000602082015250565b7f4f776e61626c653a2063616c6c6572206973206e6f7420746865206f776e6572600082015250565b50565b7f416c726561647920656e746572656420746f7572000000000000000000000000600082015250565b611df581611b9d565b8114611e0057600080fd5b50565b611e0c81611c07565b8114611e1757600080fd5b5056fea26469706673582212206350a1eaaeb4732198c61cb2dc6e60202817127bb70b6de6488f5d4633c8c6ab64736f6c63430008060033",
  "immutableReferences": {},
  "source": "// SPDX-License-Identifier: MIT\npragma solidity >=0.4.22 <0.9.0;\n\nimport \"@openzeppelin/contracts/access/Ownable.sol\";\nimport \"@openzeppelin/contracts/token/ERC777/IERC777.sol\";\nimport \"@openzeppelin/contracts/token/ERC777/IERC777Sender.sol\";\nimport \"@openzeppelin/contracts/token/ERC777/IERC777Recipient.sol\";\nimport \"@openzeppelin/contracts/utils/introspection/IERC1820Registry.sol\";\nimport \"@openzeppelin/contracts/token/ERC721/IERC721.sol\";\nimport \"@openzeppelin/contracts/token/ERC721/IERC721Receiver.sol\";\n\ncontract MuzeCustody is\n  IERC777Sender,\n  IERC777Recipient,\n  IERC721Receiver,\n  Ownable\n{\n  struct RentedNFT {\n    address previousOwner;\n    uint256 tokenId;\n    uint256 timeLockExpiry;\n  }\n\n  struct TourStake {\n    address previousOwner;\n    uint256 numberOfTokens;\n  }\n\n  // Registering with ERC1820 Registry that we can recieve ERC777\n  IERC1820Registry private _erc1820 =\n    IERC1820Registry(0x1820a4B7618BdE71Dce8cdc73aAB6C95905faD24);\n  bytes32 private constant TOKENS_RECIPIENT_INTERFACE_HASH =\n    keccak256(\"ERC777TokensRecipient\");\n\n  bytes4 private ERC721_SELECTOR =\n    bytes4(keccak256(\"onERC721Received(address,address,uint256,bytes)\"));\n\n  uint256 public TOUR_ENTRY_FEE = 30 * (10**18);\n  IERC777 public token;\n  IERC721 public nft;\n\n  // tour => account => t/f\n  mapping(address => mapping(address => bool)) hasEntered;\n  mapping(address => uint256) feesCollected;\n\n  // for when we have more tours\n  // mapping(address => RentedNFT[]) rents;\n  // mapping(address => TourStake[]) stakes;\n\n  RentedNFT[] public rents;\n  address[] private lookupTable;\n  uint256 public totalStaked;\n  mapping(address => TourStake) stake;\n\n  event EnteredTour(address indexed person, address indexed tour);\n\n  constructor() {\n    _erc1820.setInterfaceImplementer(\n      address(this),\n      TOKENS_RECIPIENT_INTERFACE_HASH,\n      address(this)\n    );\n  }\n\n  function hasEnteredTour(address _tour) external view returns (bool) {\n    return hasEntered[_tour][msg.sender];\n  }\n\n  function getRents() external view returns (RentedNFT[] memory) {\n    return rents;\n  }\n\n  function getEstimatedRewards() external view returns (uint256) {\n    uint256 total = feesCollected[address(nft)];\n    uint256 numOfTokens = stake[msg.sender].numberOfTokens;\n\n    return total * (numOfTokens / totalStaked);\n  }\n\n  function setTokenAddress(address _token) external onlyOwner {\n    token = IERC777(_token);\n  }\n\n  function setNFTAddress(address _token) external onlyOwner {\n    nft = IERC721(_token);\n  }\n\n  function enterTour(address _tour) external {\n    require(!hasEntered[_tour][msg.sender], \"Already entered tour\");\n    hasEntered[_tour][msg.sender] = true;\n    feesCollected[_tour] = feesCollected[_tour] + TOUR_ENTRY_FEE;\n    token.operatorSend(msg.sender, address(this), TOUR_ENTRY_FEE, \"\", \"\");\n    emit EnteredTour(msg.sender, _tour);\n  }\n\n  function onERC721Received(\n    address,\n    address _from,\n    uint256 _tokenId,\n    bytes calldata //_data\n  ) external override(IERC721Receiver) returns (bytes4) {\n    RentedNFT memory newRent = RentedNFT({\n      previousOwner: _from,\n      tokenId: _tokenId,\n      timeLockExpiry: block.timestamp + (14 * 86400) // 2 WEEKS\n    });\n    rents.push(newRent);\n\n    if (stake[_from].previousOwner == _from) {\n      stake[_from].numberOfTokens++;\n    } else {\n      lookupTable.push(_from);\n      stake[_from] = TourStake({ previousOwner: _from, numberOfTokens: 1 });\n    }\n\n    totalStaked++;\n\n    return ERC721_SELECTOR;\n  }\n\n  function redeemRewards(address _tour) external {\n    uint256 total = feesCollected[_tour];\n\n    for (uint256 i = 0; i < lookupTable.length; i++) {\n      uint256 s = stake[lookupTable[i]].numberOfTokens;\n      token.send(lookupTable[i], total * (s / totalStaked), \"\");\n\n      delete stake[lookupTable[i]];\n    }\n  }\n\n  function redeemNFT() external {\n    for (uint256 i = 0; i < rents.length; i++) {\n      if (rents[i].previousOwner == msg.sender) {\n        require(rents[i].timeLockExpiry < block.timestamp);\n        nft.safeTransferFrom(address(this), msg.sender, rents[i].tokenId);\n      }\n    }\n  }\n\n  // code to conform to ERC777TokensRecipient\n  function tokensReceived(\n    address operator,\n    address from,\n    address to,\n    uint256 amount,\n    bytes calldata userData,\n    bytes calldata operatorData\n  ) external override(IERC777Recipient) {}\n\n  function tokensToSend(\n    address operator,\n    address from,\n    address to,\n    uint256 amount,\n    bytes calldata userData,\n    bytes calldata operatorData\n  ) external override(IERC777Sender) {}\n}\n",
  "sourcePath": "/Users/adithyanarayan/Projects/amuze/contracts/MuzeCustody.sol",
  "compiler": {
    "name": "solc",
    "version": "0.8.6+commit.11564f7e.Emscripten.clang"
  },
  "schemaVersion": "3.4.3",
  "updatedAt": "2022-01-23T14:15:04.168Z",
  "networkType": "ethereum",
  "devdoc": {
    "kind": "dev",
    "methods": {
      "owner()": {
        "details": "Returns the address of the current owner."
      },
      "renounceOwnership()": {
        "details": "Leaves the contract without owner. It will not be possible to call `onlyOwner` functions anymore. Can only be called by the current owner. NOTE: Renouncing ownership will leave the contract without an owner, thereby removing any functionality that is only available to the owner."
      },
      "tokensReceived(address,address,address,uint256,bytes,bytes)": {
        "details": "Called by an {IERC777} token contract whenever tokens are being moved or created into a registered account (`to`). The type of operation is conveyed by `from` being the zero address or not. This call occurs _after_ the token contract's state is updated, so {IERC777-balanceOf}, etc., can be used to query the post-operation state. This function may revert to prevent the operation from being executed."
      },
      "tokensToSend(address,address,address,uint256,bytes,bytes)": {
        "details": "Called by an {IERC777} token contract whenever a registered holder's (`from`) tokens are about to be moved or destroyed. The type of operation is conveyed by `to` being the zero address or not. This call occurs _before_ the token contract's state is updated, so {IERC777-balanceOf}, etc., can be used to query the pre-operation state. This function may revert to prevent the operation from being executed."
      },
      "transferOwnership(address)": {
        "details": "Transfers ownership of the contract to a new account (`newOwner`). Can only be called by the current owner."
      }
    },
    "version": 1
  },
  "userdoc": {
    "kind": "user",
    "methods": {},
    "version": 1
  }
}